{
  "contractName": "LoanSystemWithTokens",
  "abi": [
    {
      "inputs": [],
      "stateMutability": "nonpayable",
      "type": "constructor"
    },
    {
      "inputs": [
        {
          "internalType": "address",
          "name": "loanTokenContract",
          "type": "address"
        }
      ],
      "name": "setLoanTokens",
      "outputs": [],
      "stateMutability": "nonpayable",
      "type": "function"
    },
    {
      "inputs": [
        {
          "internalType": "uint256",
          "name": "idx",
          "type": "uint256"
        }
      ],
      "name": "IndexInRange",
      "outputs": [
        {
          "internalType": "bool",
          "name": "valid",
          "type": "bool"
        }
      ],
      "stateMutability": "view",
      "type": "function",
      "constant": true
    },
    {
      "inputs": [
        {
          "internalType": "uint256",
          "name": "loan",
          "type": "uint256"
        },
        {
          "internalType": "uint256",
          "name": "interest",
          "type": "uint256"
        },
        {
          "internalType": "uint256",
          "name": "paybackLength",
          "type": "uint256"
        }
      ],
      "name": "requestLoan",
      "outputs": [],
      "stateMutability": "nonpayable",
      "type": "function"
    },
    {
      "inputs": [
        {
          "internalType": "uint256",
          "name": "idx",
          "type": "uint256"
        }
      ],
      "name": "viewLoanRequests",
      "outputs": [
        {
          "internalType": "address",
          "name": "borrower",
          "type": "address"
        },
        {
          "internalType": "address",
          "name": "guarantor",
          "type": "address"
        },
        {
          "internalType": "address",
          "name": "lender",
          "type": "address"
        },
        {
          "internalType": "uint256",
          "name": "sum",
          "type": "uint256"
        },
        {
          "internalType": "uint256",
          "name": "interest",
          "type": "uint256"
        },
        {
          "internalType": "uint256",
          "name": "paybackPeriod",
          "type": "uint256"
        },
        {
          "internalType": "uint256",
          "name": "guarantorInterest",
          "type": "uint256"
        },
        {
          "internalType": "uint256",
          "name": "lenderInterest",
          "type": "uint256"
        },
        {
          "internalType": "uint256",
          "name": "status",
          "type": "uint256"
        }
      ],
      "stateMutability": "view",
      "type": "function",
      "constant": true
    },
    {
      "inputs": [
        {
          "internalType": "uint256",
          "name": "idx",
          "type": "uint256"
        },
        {
          "internalType": "uint256",
          "name": "guaranteeInterest",
          "type": "uint256"
        }
      ],
      "name": "guaranteeLoan",
      "outputs": [],
      "stateMutability": "payable",
      "type": "function",
      "payable": true
    },
    {
      "inputs": [
        {
          "internalType": "uint256",
          "name": "idx",
          "type": "uint256"
        }
      ],
      "name": "grantLoan",
      "outputs": [],
      "stateMutability": "payable",
      "type": "function",
      "payable": true
    },
    {
      "inputs": [
        {
          "internalType": "uint256",
          "name": "idx",
          "type": "uint256"
        }
      ],
      "name": "acceptGuarantee",
      "outputs": [],
      "stateMutability": "nonpayable",
      "type": "function"
    },
    {
      "inputs": [
        {
          "internalType": "uint256",
          "name": "idx",
          "type": "uint256"
        }
      ],
      "name": "rejectGuarantee",
      "outputs": [],
      "stateMutability": "nonpayable",
      "type": "function"
    },
    {
      "inputs": [
        {
          "internalType": "uint256",
          "name": "idx",
          "type": "uint256"
        }
      ],
      "name": "payLoan",
      "outputs": [],
      "stateMutability": "payable",
      "type": "function",
      "payable": true
    },
    {
      "inputs": [
        {
          "internalType": "uint256",
          "name": "idx",
          "type": "uint256"
        }
      ],
      "name": "payLoanWithNFT",
      "outputs": [],
      "stateMutability": "payable",
      "type": "function",
      "payable": true
    },
    {
      "inputs": [
        {
          "internalType": "uint256",
          "name": "idx",
          "type": "uint256"
        }
      ],
      "name": "missedPaybackDate",
      "outputs": [],
      "stateMutability": "nonpayable",
      "type": "function"
    }
  ],
  "bytecode": "0x608060405234801561001057600080fd5b5033600260006101000a81548173ffffffffffffffffffffffffffffffffffffffff021916908373ffffffffffffffffffffffffffffffffffffffff160217905550612706806100616000396000f3fe60806040526004361061009c5760003560e01c8063975b831411610064578063975b8314146102a05780639da12366146102db578063a8d7b3ec14610309578063c2efee0a14610337578063d8351b5a14610372578063edadbbfe146103c35761009c565b806302e62b40146100a1578063230520e2146100d95780634b82812e1461012c5780635c9f045214610167578063936ea24614610195575b600080fd5b6100d7600480360360408110156100b757600080fd5b810190808035906020019092919080359060200190929190505050610412565b005b3480156100e557600080fd5b50610112600480360360208110156100fc57600080fd5b810190808035906020019092919050505061090c565b604051808215151515815260200191505060405180910390f35b34801561013857600080fd5b506101656004803603602081101561014f57600080fd5b810190808035906020019092919050505061092d565b005b6101936004803603602081101561017d57600080fd5b81019080803590602001909291905050506109ca565b005b3480156101a157600080fd5b506101ce600480360360208110156101b857600080fd5b8101908080359060200190929190505050610b15565b604051808a73ffffffffffffffffffffffffffffffffffffffff1673ffffffffffffffffffffffffffffffffffffffff1681526020018973ffffffffffffffffffffffffffffffffffffffff1673ffffffffffffffffffffffffffffffffffffffff1681526020018873ffffffffffffffffffffffffffffffffffffffff1673ffffffffffffffffffffffffffffffffffffffff168152602001878152602001868152602001858152602001848152602001838152602001828152602001995050505050505050505060405180910390f35b3480156102ac57600080fd5b506102d9600480360360208110156102c357600080fd5b8101908080359060200190929190505050610cef565b005b610307600480360360208110156102f157600080fd5b810190808035906020019092919050505061100d565b005b6103356004803603602081101561031f57600080fd5b81019080803590602001909291905050506115e4565b005b34801561034357600080fd5b506103706004803603602081101561035a57600080fd5b8101908080359060200190929190505050611d78565b005b34801561037e57600080fd5b506103c16004803603602081101561039557600080fd5b81019080803573ffffffffffffffffffffffffffffffffffffffff169060200190929190505050612181565b005b3480156103cf57600080fd5b50610410600480360360608110156103e657600080fd5b8101908080359060200190929190803590602001909291908035906020019092919050505061226b565b005b6000828154811061041f57fe5b9060005260206000209060090201600301543414610488576040517f08c379a00000000000000000000000000000000000000000000000000000000081526004018080602001828103825260498152602001806126626049913960600191505060405180910390fd5b6000828154811061049557fe5b906000526020600020906009020160000160009054906101000a900473ffffffffffffffffffffffffffffffffffffffff1673ffffffffffffffffffffffffffffffffffffffff163373ffffffffffffffffffffffffffffffffffffffff16141561054b576040517f08c379a000000000000000000000000000000000000000000000000000000000815260040180806020018281038252602c815260200180612562602c913960400191505060405180910390fd5b600073ffffffffffffffffffffffffffffffffffffffff166000838154811061057057fe5b906000526020600020906009020160010160009054906101000a900473ffffffffffffffffffffffffffffffffffffffff1673ffffffffffffffffffffffffffffffffffffffff161461062b576040517f08c379a000000000000000000000000000000000000000000000000000000000815260040180806020018281038252601e8152602001807f4c6f616e20616c7265616479206265696e672067756172616e7465656421000081525060200191505060405180910390fd5b6000828154811061063857fe5b90600052602060002090600902016004015481106106be576040517f08c379a000000000000000000000000000000000000000000000000000000000815260040180806020018281038252601b8152602001807f47756172616e746f7220496e74657265737420746f6f2068696768000000000081525060200191505060405180910390fd5b600082815481106106cb57fe5b9060005260206000209060090201600501544210610751576040517f08c379a000000000000000000000000000000000000000000000000000000000815260040180806020018281038252600c8152602001807f4c6f616e2045787069726564000000000000000000000000000000000000000081525060200191505060405180910390fd5b336000838154811061075f57fe5b906000526020600020906009020160010160006101000a81548173ffffffffffffffffffffffffffffffffffffffff021916908373ffffffffffffffffffffffffffffffffffffffff16021790555080600083815481106107bc57fe5b906000526020600020906009020160060181905550600160009054906101000a900473ffffffffffffffffffffffffffffffffffffffff1673ffffffffffffffffffffffffffffffffffffffff166323b872dd33306000868154811061081e57fe5b9060005260206000209060090201600301546040518463ffffffff1660e01b8152600401808473ffffffffffffffffffffffffffffffffffffffff1673ffffffffffffffffffffffffffffffffffffffff1681526020018373ffffffffffffffffffffffffffffffffffffffff1673ffffffffffffffffffffffffffffffffffffffff1681526020018281526020019350505050602060405180830381600087803b1580156108cc57600080fd5b505af11580156108e0573d6000803e3d6000fd5b505050506040513d60208110156108f657600080fd5b8101908080519060200190929190505050505050565b600080805490508210156109235760019050610928565b600090505b919050565b600080828154811061093b57fe5b906000526020600020906009020160080154146109a3576040517f08c379a00000000000000000000000000000000000000000000000000000000081526004018080602001828103825260268152602001806126ab6026913960400191505060405180910390fd5b6001600082815481106109b257fe5b90600052602060002090600902016008018190555050565b80600115156109d88261090c565b151514610a30576040517f08c379a000000000000000000000000000000000000000000000000000000000815260040180806020018281038252602d8152602001806125bb602d913960400191505060405180910390fd5b8160008181548110610a3e57fe5b906000526020600020906009020160000160009054906101000a900473ffffffffffffffffffffffffffffffffffffffff1673ffffffffffffffffffffffffffffffffffffffff163373ffffffffffffffffffffffffffffffffffffffff1614610b10576040517f08c379a00000000000000000000000000000000000000000000000000000000081526004018080602001828103825260168152602001807f4e6565647320746f206265206120626f72726f7765720000000000000000000081525060200191505060405180910390fd5b505050565b6000806000806000806000806000610b2b6124ae565b60008b81548110610b3857fe5b9060005260206000209060090201604051806101200160405290816000820160009054906101000a900473ffffffffffffffffffffffffffffffffffffffff1673ffffffffffffffffffffffffffffffffffffffff1673ffffffffffffffffffffffffffffffffffffffff1681526020016001820160009054906101000a900473ffffffffffffffffffffffffffffffffffffffff1673ffffffffffffffffffffffffffffffffffffffff1673ffffffffffffffffffffffffffffffffffffffff1681526020016002820160009054906101000a900473ffffffffffffffffffffffffffffffffffffffff1673ffffffffffffffffffffffffffffffffffffffff1673ffffffffffffffffffffffffffffffffffffffff16815260200160038201548152602001600482015481526020016005820154815260200160068201548152602001600782015481526020016008820154815250509050806000015181602001518260400151836060015184608001518560a001518660c001518760c00151886080015103886101000151889850879750869650995099509950995099509950995099509950509193959799909294969850565b600260008281548110610cfe57fe5b90600052602060002090600902016008015414158015610d3d5750600360008281548110610d2857fe5b90600052602060002090600902016008015414155b610d92576040517f08c379a000000000000000000000000000000000000000000000000000000000815260040180806020018281038252602681526020018061263c6026913960400191505060405180910390fd5b6000808281548110610da057fe5b9060005260206000209060090201600801541415610e26576040517f08c379a00000000000000000000000000000000000000000000000000000000081526004018080602001828103825260148152602001807f4e6f2047756172616e7465652070726573656e7400000000000000000000000081525060200191505060405180910390fd5b6000808281548110610e3457fe5b9060005260206000209060090201600801819055506000808281548110610e5757fe5b906000526020600020906009020160060181905550600160009054906101000a900473ffffffffffffffffffffffffffffffffffffffff1673ffffffffffffffffffffffffffffffffffffffff1663a9059cbb60008381548110610eb757fe5b906000526020600020906009020160010160009054906101000a900473ffffffffffffffffffffffffffffffffffffffff1660008481548110610ef657fe5b9060005260206000209060090201600301546040518363ffffffff1660e01b8152600401808373ffffffffffffffffffffffffffffffffffffffff1673ffffffffffffffffffffffffffffffffffffffff16815260200182815260200192505050602060405180830381600087803b158015610f7157600080fd5b505af1158015610f85573d6000803e3d6000fd5b505050506040513d6020811015610f9b57600080fd5b8101908080519060200190929190505050506000808281548110610fbb57fe5b906000526020600020906009020160010160006101000a81548173ffffffffffffffffffffffffffffffffffffffff021916908373ffffffffffffffffffffffffffffffffffffffff16021790555050565b6000818154811061101a57fe5b9060005260206000209060090201600301543414611083576040517f08c379a00000000000000000000000000000000000000000000000000000000081526004018080602001828103825260498152602001806126626049913960600191505060405180910390fd5b6000818154811061109057fe5b906000526020600020906009020160000160009054906101000a900473ffffffffffffffffffffffffffffffffffffffff1673ffffffffffffffffffffffffffffffffffffffff163373ffffffffffffffffffffffffffffffffffffffff161415611163576040517f08c379a00000000000000000000000000000000000000000000000000000000081526004018080602001828103825260178152602001807f596f7520617265206e6f7420746865206c656e6465722100000000000000000081525060200191505060405180910390fd5b6000818154811061117057fe5b906000526020600020906009020160010160009054906101000a900473ffffffffffffffffffffffffffffffffffffffff1673ffffffffffffffffffffffffffffffffffffffff163373ffffffffffffffffffffffffffffffffffffffff1614611242576040517f08c379a00000000000000000000000000000000000000000000000000000000081526004018080602001828103825260178152602001807f596f7520617265206e6f7420746865206c656e6465722100000000000000000081525060200191505060405180910390fd5b60016000828154811061125157fe5b906000526020600020906009020160080154146112b9576040517f08c379a00000000000000000000000000000000000000000000000000000000081526004018080602001828103825260548152602001806125e86054913960600191505060405180910390fd5b600081815481106112c657fe5b906000526020600020906009020160050154421061134c576040517f08c379a000000000000000000000000000000000000000000000000000000000815260040180806020018281038252600d8152602001807f4c6f616e2045787069726564210000000000000000000000000000000000000081525060200191505060405180910390fd5b60026000828154811061135b57fe5b906000526020600020906009020160080181905550336000828154811061137e57fe5b906000526020600020906009020160020160006101000a81548173ffffffffffffffffffffffffffffffffffffffff021916908373ffffffffffffffffffffffffffffffffffffffff160217905550600081815481106113da57fe5b906000526020600020906009020160060154600082815481106113f957fe5b906000526020600020906009020160040154036000828154811061141957fe5b906000526020600020906009020160070181905550600160009054906101000a900473ffffffffffffffffffffffffffffffffffffffff1673ffffffffffffffffffffffffffffffffffffffff166323b872dd6000838154811061147957fe5b906000526020600020906009020160020160009054906101000a900473ffffffffffffffffffffffffffffffffffffffff16600084815481106114b857fe5b906000526020600020906009020160000160009054906101000a900473ffffffffffffffffffffffffffffffffffffffff16600085815481106114f757fe5b9060005260206000209060090201600301546040518463ffffffff1660e01b8152600401808473ffffffffffffffffffffffffffffffffffffffff1673ffffffffffffffffffffffffffffffffffffffff1681526020018373ffffffffffffffffffffffffffffffffffffffff1673ffffffffffffffffffffffffffffffffffffffff1681526020018281526020019350505050602060405180830381600087803b1580156115a557600080fd5b505af11580156115b9573d6000803e3d6000fd5b505050506040513d60208110156115cf57600080fd5b81019080805190602001909291905050505050565b80600115156115f28261090c565b15151461164a576040517f08c379a000000000000000000000000000000000000000000000000000000000815260040180806020018281038252602d8152602001806125bb602d913960400191505060405180910390fd5b816000818154811061165857fe5b906000526020600020906009020160000160009054906101000a900473ffffffffffffffffffffffffffffffffffffffff1673ffffffffffffffffffffffffffffffffffffffff163373ffffffffffffffffffffffffffffffffffffffff161461172a576040517f08c379a00000000000000000000000000000000000000000000000000000000081526004018080602001828103825260168152602001807f4e6565647320746f206265206120626f72726f7765720000000000000000000081525060200191505060405180910390fd5b6000838154811061173757fe5b9060005260206000209060090201600401546000848154811061175657fe5b9060005260206000209060090201600301540134146117dd576040517f08c379a000000000000000000000000000000000000000000000000000000000815260040180806020018281038252601f8152602001807f496e73756666696369656e742066756e6473207472616e73666572726564210081525060200191505060405180910390fd5b6002600084815481106117ec57fe5b90600052602060002090600902016008015414611854576040517f08c379a000000000000000000000000000000000000000000000000000000000815260040180806020018281038252602d81526020018061258e602d913960400191505060405180910390fd5b60036000848154811061186357fe5b906000526020600020906009020160080181905550600160009054906101000a900473ffffffffffffffffffffffffffffffffffffffff1673ffffffffffffffffffffffffffffffffffffffff166323b872dd30600086815481106118c457fe5b906000526020600020906009020160010160009054906101000a900473ffffffffffffffffffffffffffffffffffffffff166000878154811061190357fe5b9060005260206000209060090201600301546040518463ffffffff1660e01b8152600401808473ffffffffffffffffffffffffffffffffffffffff1673ffffffffffffffffffffffffffffffffffffffff1681526020018373ffffffffffffffffffffffffffffffffffffffff1673ffffffffffffffffffffffffffffffffffffffff1681526020018281526020019350505050602060405180830381600087803b1580156119b157600080fd5b505af11580156119c5573d6000803e3d6000fd5b505050506040513d60208110156119db57600080fd5b810190808051906020019092919050505050600160009054906101000a900473ffffffffffffffffffffffffffffffffffffffff1673ffffffffffffffffffffffffffffffffffffffff166323b872dd60008581548110611a3857fe5b906000526020600020906009020160000160009054906101000a900473ffffffffffffffffffffffffffffffffffffffff1660008681548110611a7757fe5b906000526020600020906009020160010160009054906101000a900473ffffffffffffffffffffffffffffffffffffffff1660008781548110611ab657fe5b9060005260206000209060090201600601546040518463ffffffff1660e01b8152600401808473ffffffffffffffffffffffffffffffffffffffff1673ffffffffffffffffffffffffffffffffffffffff1681526020018373ffffffffffffffffffffffffffffffffffffffff1673ffffffffffffffffffffffffffffffffffffffff1681526020018281526020019350505050602060405180830381600087803b158015611b6457600080fd5b505af1158015611b78573d6000803e3d6000fd5b505050506040513d6020811015611b8e57600080fd5b810190808051906020019092919050505050600160009054906101000a900473ffffffffffffffffffffffffffffffffffffffff1673ffffffffffffffffffffffffffffffffffffffff166323b872dd60008581548110611beb57fe5b906000526020600020906009020160000160009054906101000a900473ffffffffffffffffffffffffffffffffffffffff1660008681548110611c2a57fe5b906000526020600020906009020160020160009054906101000a900473ffffffffffffffffffffffffffffffffffffffff1660008781548110611c6957fe5b90600052602060002090600902016007015460008881548110611c8857fe5b906000526020600020906009020160030154016040518463ffffffff1660e01b8152600401808473ffffffffffffffffffffffffffffffffffffffff1673ffffffffffffffffffffffffffffffffffffffff1681526020018373ffffffffffffffffffffffffffffffffffffffff1673ffffffffffffffffffffffffffffffffffffffff1681526020018281526020019350505050602060405180830381600087803b158015611d3757600080fd5b505af1158015611d4b573d6000803e3d6000fd5b505050506040513d6020811015611d6157600080fd5b810190808051906020019092919050505050505050565b8060011515611d868261090c565b151514611dde576040517f08c379a000000000000000000000000000000000000000000000000000000000815260040180806020018281038252602d8152602001806125bb602d913960400191505060405180910390fd5b600260008381548110611ded57fe5b90600052602060002090600902016008015414611e72576040517f08c379a00000000000000000000000000000000000000000000000000000000081526004018080602001828103825260128152602001807f4c6f616e20616c7265616479207061696421000000000000000000000000000081525060200191505060405180910390fd5b60008281548110611e7f57fe5b9060005260206000209060090201600501544211611f05576040517f08c379a000000000000000000000000000000000000000000000000000000000815260040180806020018281038252601c8152602001807f5061796261636b20706572696f64206e6f74206f76657220796574210000000081525060200191505060405180910390fd5b60008281548110611f1257fe5b906000526020600020906009020160020160009054906101000a900473ffffffffffffffffffffffffffffffffffffffff1673ffffffffffffffffffffffffffffffffffffffff163373ffffffffffffffffffffffffffffffffffffffff1614611fe4576040517f08c379a00000000000000000000000000000000000000000000000000000000081526004018080602001828103825260168152602001807f596f7520617265206e6f7420746865206c656e6465720000000000000000000081525060200191505060405180910390fd5b600460008381548110611ff357fe5b906000526020600020906009020160080181905550600160009054906101000a900473ffffffffffffffffffffffffffffffffffffffff1673ffffffffffffffffffffffffffffffffffffffff166323b872dd306000858154811061205457fe5b906000526020600020906009020160020160009054906101000a900473ffffffffffffffffffffffffffffffffffffffff166000868154811061209357fe5b9060005260206000209060090201600301546040518463ffffffff1660e01b8152600401808473ffffffffffffffffffffffffffffffffffffffff1673ffffffffffffffffffffffffffffffffffffffff1681526020018373ffffffffffffffffffffffffffffffffffffffff1673ffffffffffffffffffffffffffffffffffffffff1681526020018281526020019350505050602060405180830381600087803b15801561214157600080fd5b505af1158015612155573d6000803e3d6000fd5b505050506040513d602081101561216b57600080fd5b8101908080519060200190929190505050505050565b600260009054906101000a900473ffffffffffffffffffffffffffffffffffffffff1673ffffffffffffffffffffffffffffffffffffffff163373ffffffffffffffffffffffffffffffffffffffff1614612227576040517f08c379a000000000000000000000000000000000000000000000000000000000815260040180806020018281038252602581526020018061253d6025913960400191505060405180910390fd5b80600160006101000a81548173ffffffffffffffffffffffffffffffffffffffff021916908373ffffffffffffffffffffffffffffffffffffffff16021790555050565b600083116122e1576040517f08c379a00000000000000000000000000000000000000000000000000000000081526004018080602001828103825260138152602001807f496e76616c6964204c6f616e20416d6f756e740000000000000000000000000081525060200191505060405180910390fd5b60006040518061012001604052803373ffffffffffffffffffffffffffffffffffffffff168152602001600073ffffffffffffffffffffffffffffffffffffffff168152602001600073ffffffffffffffffffffffffffffffffffffffff168152602001858152602001848152602001834201815260200160008152602001600081526020016000815250908060018154018082558091505060019003906000526020600020906009020160009091909190915060008201518160000160006101000a81548173ffffffffffffffffffffffffffffffffffffffff021916908373ffffffffffffffffffffffffffffffffffffffff16021790555060208201518160010160006101000a81548173ffffffffffffffffffffffffffffffffffffffff021916908373ffffffffffffffffffffffffffffffffffffffff16021790555060408201518160020160006101000a81548173ffffffffffffffffffffffffffffffffffffffff021916908373ffffffffffffffffffffffffffffffffffffffff160217905550606082015181600301556080820151816004015560a0820151816005015560c0820151816006015560e0820151816007015561010082015181600801555050505050565b604051806101200160405280600073ffffffffffffffffffffffffffffffffffffffff168152602001600073ffffffffffffffffffffffffffffffffffffffff168152602001600073ffffffffffffffffffffffffffffffffffffffff168152602001600081526020016000815260200160008152602001600081526020016000815260200160008152509056fe4f6e6c7920746865206f776e65722063616e20637265617465204c6f616e546f6b656e7321496e76616c69642047756172616e7465652120426f72726f7765722063616e6e6f742067756172616e7465654c6f616e207061696420616c7265616479206f72204e6f204c6f616e20686173206265656e206772616e74656456616c696420496e64657821204e6f206c6f616e2072657175657374206174207468617420706f736974696f6e5468652067756172616e7465652068617320656974686572206e6f7420796574206265656e2061636365707465642c206f722061206c6f616e2068617320616c7265616479206265656e2070726f7669646564214c6f616e2050726f76696465642e2043616e6e6f742072656a6563742067756172616e746565496e76616c69642046756e6473205472616e73666572726564212046756e6473207472616e73666665726564206973206e6f7420657175616c20746f206c6f616e20726571756573744c6f616e2068617320616e20616c72656164792061636365707465642067756172616e746565a26469706673582212204c39239369348fa57716e7d554526b62ee9ea50a02cc1327431f64251d3f061e64736f6c63430006060033",
  "immutableReferences": {},
  "source": "pragma solidity ^0.6.6;\n\nimport './LoanToken.sol';\n\ncontract LoanSystemWithTokens { \n    \n    Loan[] loanRequests; \n    LoanToken token;\n    address owner; \n\n    struct Loan { \n        address payable borrower; \n        address payable guarantor; \n        address payable lender; \n        uint256 loan; \n        uint256 interest;\n        uint256 paybackLength; \n        uint256 guarantorInterest; \n        uint256 lenderInterest; \n        uint256 stateOfLoan; // // 0 = has no accepted guarantee, 1 = has an accepted guarantee, 2 = has been provided a loan, 3 = has been paid back by borrower, 4 = borrower has missed the payback period\n    }\n\n    constructor() public { \n        owner = msg.sender;\n    }\n\n    function setLoanTokens(address loanTokenContract) public { \n        require(msg.sender == owner, \"Only the owner can create LoanTokens!\");\n        token = LoanToken(loanTokenContract);\n    }\n\n    modifier validIdx(uint256 index) {\n        require(IndexInRange(index) == true, \"Valid Index! No loan request at that position\");\n        _;\n    }\n    \n    modifier isBorrower(uint256 idx) { \n        require(msg.sender == loanRequests[idx].borrower, \"Needs to be a borrower\");\n        _; \n    }\n\n    function IndexInRange(uint256 idx) public view returns(bool valid) { \n        if (idx < loanRequests.length) { return true; }\n        return false; \n    }\n\n\n    function requestLoan(uint256 loan, uint256 interest, uint256 paybackLength) public { \n        require(loan > 0, \"Invalid Loan Amount\");\n        loanRequests.push(Loan(msg.sender, address(0), address(0), loan, interest, (now + paybackLength), 0, 0, 0));\n    }\n\n    function viewLoanRequests(uint256 idx) public view returns(address borrower, address guarantor, address lender, uint256 sum , uint256 interest, uint256 paybackPeriod, uint256 guarantorInterest, uint256 lenderInterest, uint256 status) { \n        Loan memory lr = loanRequests[idx];    // this prevents stack from getting too deep\n        return(lr.borrower,\n            lr.guarantor,\n            lr.lender,\n            lr.loan,\n            lr.interest,\n            lr.paybackLength,\n            lr.guarantorInterest,\n            lr.interest - lr.guarantorInterest,\n            lr.stateOfLoan);\n    }\n\n    function guaranteeLoan(uint256 idx, uint256 guaranteeInterest) public payable {\n        require(msg.value == loanRequests[idx].loan, \"Invalid Funds Transferred! Funds transffered is not equal to loan request\");\n        require(msg.sender != loanRequests[idx].borrower, \"Invalid Guarantee! Borrower cannot guarantee\");\n        require(loanRequests[idx].guarantor == address(0), \"Loan already being guaranteed!\");\n        require(guaranteeInterest < loanRequests[idx].interest, \"Guarantor Interest too high\"); \n        require(now < loanRequests[idx].paybackLength, \"Loan Expired\");\n        loanRequests[idx].guarantor = msg.sender; \n        loanRequests[idx].guarantorInterest = guaranteeInterest;\n    \n        token.transferFrom(msg.sender, address(this), loanRequests[idx].loan);\n    }\n\n    function grantLoan(uint256 idx) public payable{ \n        require(msg.value == loanRequests[idx].loan, \"Invalid Funds Transferred! Funds transffered is not equal to loan request\");\n        require(msg.sender != loanRequests[idx].borrower, \"You are not the lender!\");\n        require(msg.sender == loanRequests[idx].guarantor, \"You are not the lender!\");\n        require(loanRequests[idx].stateOfLoan == 1, \"The guarantee has either not yet been accepted, or a loan has already been provided!\");\n        require(now < loanRequests[idx].paybackLength, \"Loan Expired!\");\n        loanRequests[idx].stateOfLoan = 2; \n        loanRequests[idx].lender = msg.sender; \n        loanRequests[idx].lenderInterest = loanRequests[idx].interest - loanRequests[idx].guarantorInterest;\n        \n        token.transferFrom(loanRequests[idx].lender, loanRequests[idx].borrower, loanRequests[idx].loan);\n    }\n\n    function acceptGuarantee(uint256 idx) public {\n        require(loanRequests[idx].stateOfLoan == 0, \"Loan has an already accepted guarantee\");\n        loanRequests[idx].stateOfLoan = 1;\n    }\n\n    function rejectGuarantee(uint256 idx) public { \n        require((loanRequests[idx].stateOfLoan != 2) && (loanRequests[idx].stateOfLoan != 3), \"Loan Provided. Cannot reject guarantee\");\n        require(loanRequests[idx].stateOfLoan != 0, \"No Guarantee present\");\n        loanRequests[idx].stateOfLoan = 0; \n        loanRequests[idx].guarantorInterest = 0; \n        token.transfer(loanRequests[idx].guarantor, loanRequests[idx].loan);\n        loanRequests[idx].guarantor = address(0);\n    }\n\n    function payLoan(uint256 idx) public validIdx(idx) isBorrower(idx) payable { \n        require(msg.value == (loanRequests[idx].loan + loanRequests[idx].interest), \"Insufficient funds transferred!\");\n        require(loanRequests[idx].stateOfLoan == 2, \"Loan paid already or No Loan has been granted\");\n        loanRequests[idx].stateOfLoan = 3; \n\n        // transfering loan tokens\n        token.transferFrom((address(this)), loanRequests[idx].guarantor, loanRequests[idx].loan);\n        token.transferFrom(loanRequests[idx].borrower, loanRequests[idx].guarantor, loanRequests[idx].guarantorInterest);\n        token.transferFrom(loanRequests[idx].borrower, loanRequests[idx].lender, loanRequests[idx].loan + loanRequests[idx].lenderInterest);\n    }\n\n    function payLoanWithNFT(uint256 idx) public validIdx(idx) isBorrower(idx) payable { \n\n    }\n\n    function missedPaybackDate(uint256 idx) public validIdx(idx) { \n        require(loanRequests[idx].stateOfLoan == 2, \"Loan already paid!\");\n        require(now > loanRequests[idx].paybackLength, \"Payback period not over yet!\");\n        require(msg.sender == loanRequests[idx].lender, \"You are not the lender\");\n        loanRequests[idx].stateOfLoan = 4; \n        \n        token.transferFrom(address(this), loanRequests[idx].lender, loanRequests[idx].loan);\n    } \n\n    // \n}",
  "sourcePath": "/home/malik_cyrus/ict3009_assignment/contracts/LoanSystemWithTokens.sol",
  "compiler": {
    "name": "solc",
    "version": "0.6.6+commit.6c089d02.Emscripten.clang"
  },
  "schemaVersion": "3.4.10",
  "updatedAt": "2023-02-16T20:14:09.896Z",
  "networkType": "ethereum",
  "devdoc": {
    "methods": {}
  },
  "userdoc": {
    "methods": {}
  }
}