{
  "contractName": "LoanSystem",
  "abi": [
    {
      "inputs": [
        {
          "internalType": "uint256",
          "name": "idx",
          "type": "uint256"
        }
      ],
      "name": "IndexInRange",
      "outputs": [
        {
          "internalType": "bool",
          "name": "valid",
          "type": "bool"
        }
      ],
      "stateMutability": "view",
      "type": "function",
      "constant": true
    },
    {
      "inputs": [],
      "name": "getNumberOfLoanRequests",
      "outputs": [
        {
          "internalType": "uint256",
          "name": "requests",
          "type": "uint256"
        }
      ],
      "stateMutability": "view",
      "type": "function",
      "constant": true
    },
    {
      "inputs": [
        {
          "internalType": "uint256",
          "name": "loan",
          "type": "uint256"
        },
        {
          "internalType": "uint256",
          "name": "interest",
          "type": "uint256"
        },
        {
          "internalType": "uint256",
          "name": "paybackLength",
          "type": "uint256"
        }
      ],
      "name": "requestLoan",
      "outputs": [],
      "stateMutability": "nonpayable",
      "type": "function"
    },
    {
      "inputs": [
        {
          "internalType": "uint256",
          "name": "idx",
          "type": "uint256"
        }
      ],
      "name": "viewLoanRequests",
      "outputs": [
        {
          "internalType": "address",
          "name": "borrower",
          "type": "address"
        },
        {
          "internalType": "address",
          "name": "guarantor",
          "type": "address"
        },
        {
          "internalType": "address",
          "name": "lender",
          "type": "address"
        },
        {
          "internalType": "uint256",
          "name": "loan",
          "type": "uint256"
        },
        {
          "internalType": "uint256",
          "name": "interest",
          "type": "uint256"
        },
        {
          "internalType": "uint256",
          "name": "paybackLength",
          "type": "uint256"
        },
        {
          "internalType": "uint256",
          "name": "guarantorInterest",
          "type": "uint256"
        },
        {
          "internalType": "uint256",
          "name": "lenderInterest",
          "type": "uint256"
        },
        {
          "internalType": "uint256",
          "name": "stateOfLoan",
          "type": "uint256"
        }
      ],
      "stateMutability": "view",
      "type": "function",
      "constant": true
    },
    {
      "inputs": [
        {
          "internalType": "uint256",
          "name": "idx",
          "type": "uint256"
        },
        {
          "internalType": "uint256",
          "name": "guaranteeInterest",
          "type": "uint256"
        }
      ],
      "name": "guaranteeLoan",
      "outputs": [],
      "stateMutability": "payable",
      "type": "function",
      "payable": true
    },
    {
      "inputs": [
        {
          "internalType": "uint256",
          "name": "idx",
          "type": "uint256"
        }
      ],
      "name": "grantLoan",
      "outputs": [],
      "stateMutability": "payable",
      "type": "function",
      "payable": true
    },
    {
      "inputs": [
        {
          "internalType": "uint256",
          "name": "idx",
          "type": "uint256"
        }
      ],
      "name": "acceptGuarantee",
      "outputs": [],
      "stateMutability": "nonpayable",
      "type": "function"
    },
    {
      "inputs": [
        {
          "internalType": "uint256",
          "name": "idx",
          "type": "uint256"
        }
      ],
      "name": "rejectGuarantee",
      "outputs": [],
      "stateMutability": "nonpayable",
      "type": "function"
    },
    {
      "inputs": [
        {
          "internalType": "uint256",
          "name": "idx",
          "type": "uint256"
        }
      ],
      "name": "payLoan",
      "outputs": [],
      "stateMutability": "payable",
      "type": "function",
      "payable": true
    },
    {
      "inputs": [
        {
          "internalType": "uint256",
          "name": "idx",
          "type": "uint256"
        }
      ],
      "name": "missedPaybackDate",
      "outputs": [],
      "stateMutability": "nonpayable",
      "type": "function"
    }
  ],
  "bytecode": "0x608060405234801561001057600080fd5b50611d39806100206000396000f3fe6080604052600436106100915760003560e01c80639da12366116100595780639da12366146102a2578063a8d7b3ec146102d0578063b85a8417146102fe578063c2efee0a14610329578063edadbbfe1461036457610091565b806302e62b4014610096578063230520e2146100ce5780634b82812e14610121578063936ea2461461015c578063975b831414610267575b600080fd5b6100cc600480360360408110156100ac57600080fd5b8101908080359060200190929190803590602001909291905050506103b3565b005b3480156100da57600080fd5b50610107600480360360208110156100f157600080fd5b81019080803590602001909291905050506107dd565b604051808215151515815260200191505060405180910390f35b34801561012d57600080fd5b5061015a6004803603602081101561014457600080fd5b81019080803590602001909291905050506107fe565b005b34801561016857600080fd5b506101956004803603602081101561017f57600080fd5b810190808035906020019092919050505061089b565b604051808a73ffffffffffffffffffffffffffffffffffffffff1673ffffffffffffffffffffffffffffffffffffffff1681526020018973ffffffffffffffffffffffffffffffffffffffff1673ffffffffffffffffffffffffffffffffffffffff1681526020018873ffffffffffffffffffffffffffffffffffffffff1673ffffffffffffffffffffffffffffffffffffffff168152602001878152602001868152602001858152602001848152602001838152602001828152602001995050505050505050505060405180910390f35b34801561027357600080fd5b506102a06004803603602081101561028a57600080fd5b8101908080359060200190929190505050610a75565b005b6102ce600480360360208110156102b857600080fd5b8101908080359060200190929190505050610cf5565b005b6102fc600480360360208110156102e657600080fd5b810190808035906020019092919050505061119f565b005b34801561030a57600080fd5b506103136115be565b6040518082815260200191505060405180910390f35b34801561033557600080fd5b506103626004803603602081101561034c57600080fd5b81019080803590602001909291905050506115ca565b005b34801561037057600080fd5b506103b16004803603606081101561038757600080fd5b810190808035906020019092919080359060200190929190803590602001909291905050506118c3565b005b81600115156103c1826107dd565b151514610419576040517f08c379a000000000000000000000000000000000000000000000000000000000815260040180806020018281038252602d815260200180611bee602d913960400191505060405180910390fd5b6000838154811061042657fe5b906000526020600020906009020160030154341461048f576040517f08c379a0000000000000000000000000000000000000000000000000000000008152600401808060200182810382526049815260200180611c956049913960600191505060405180910390fd5b6000838154811061049c57fe5b906000526020600020906009020160000160009054906101000a900473ffffffffffffffffffffffffffffffffffffffff1673ffffffffffffffffffffffffffffffffffffffff163373ffffffffffffffffffffffffffffffffffffffff161415610552576040517f08c379a000000000000000000000000000000000000000000000000000000000815260040180806020018281038252602c815260200180611b95602c913960400191505060405180910390fd5b600073ffffffffffffffffffffffffffffffffffffffff166000848154811061057757fe5b906000526020600020906009020160010160009054906101000a900473ffffffffffffffffffffffffffffffffffffffff1673ffffffffffffffffffffffffffffffffffffffff1614610632576040517f08c379a000000000000000000000000000000000000000000000000000000000815260040180806020018281038252601e8152602001807f4c6f616e20616c7265616479206265696e672067756172616e7465656421000081525060200191505060405180910390fd5b6000838154811061063f57fe5b90600052602060002090600902016004015482106106c5576040517f08c379a000000000000000000000000000000000000000000000000000000000815260040180806020018281038252601b8152602001807f47756172616e746f7220496e74657265737420746f6f2068696768000000000081525060200191505060405180910390fd5b600083815481106106d257fe5b9060005260206000209060090201600501544210610758576040517f08c379a000000000000000000000000000000000000000000000000000000000815260040180806020018281038252600c8152602001807f4c6f616e2045787069726564000000000000000000000000000000000000000081525060200191505060405180910390fd5b336000848154811061076657fe5b906000526020600020906009020160010160006101000a81548173ffffffffffffffffffffffffffffffffffffffff021916908373ffffffffffffffffffffffffffffffffffffffff16021790555081600084815481106107c357fe5b906000526020600020906009020160060181905550505050565b600080805490508210156107f457600190506107f9565b600090505b919050565b600080828154811061080c57fe5b90600052602060002090600902016008015414610874576040517f08c379a0000000000000000000000000000000000000000000000000000000008152600401808060200182810382526026815260200180611cde6026913960400191505060405180910390fd5b60016000828154811061088357fe5b90600052602060002090600902016008018190555050565b60008060008060008060008060006108b1611b06565b60008b815481106108be57fe5b9060005260206000209060090201604051806101200160405290816000820160009054906101000a900473ffffffffffffffffffffffffffffffffffffffff1673ffffffffffffffffffffffffffffffffffffffff1673ffffffffffffffffffffffffffffffffffffffff1681526020016001820160009054906101000a900473ffffffffffffffffffffffffffffffffffffffff1673ffffffffffffffffffffffffffffffffffffffff1673ffffffffffffffffffffffffffffffffffffffff1681526020016002820160009054906101000a900473ffffffffffffffffffffffffffffffffffffffff1673ffffffffffffffffffffffffffffffffffffffff1673ffffffffffffffffffffffffffffffffffffffff16815260200160038201548152602001600482015481526020016005820154815260200160068201548152602001600782015481526020016008820154815250509050806000015181602001518260400151836060015184608001518560a001518660c001518760c00151886080015103886101000151889850879750869650995099509950995099509950995099509950509193959799909294969850565b600260008281548110610a8457fe5b90600052602060002090600902016008015414158015610ac35750600360008281548110610aae57fe5b90600052602060002090600902016008015414155b610b18576040517f08c379a0000000000000000000000000000000000000000000000000000000008152600401808060200182810382526026815260200180611c6f6026913960400191505060405180910390fd5b6000808281548110610b2657fe5b9060005260206000209060090201600801541415610bac576040517f08c379a00000000000000000000000000000000000000000000000000000000081526004018080602001828103825260148152602001807f4e6f2047756172616e7465652070726573656e7400000000000000000000000081525060200191505060405180910390fd5b6000808281548110610bba57fe5b9060005260206000209060090201600801819055506000808281548110610bdd57fe5b90600052602060002090600902016006018190555060008181548110610bff57fe5b906000526020600020906009020160010160009054906101000a900473ffffffffffffffffffffffffffffffffffffffff1673ffffffffffffffffffffffffffffffffffffffff166108fc60008381548110610c5757fe5b9060005260206000209060090201600301549081150290604051600060405180830381858888f19350505050158015610c94573d6000803e3d6000fd5b506000808281548110610ca357fe5b906000526020600020906009020160010160006101000a81548173ffffffffffffffffffffffffffffffffffffffff021916908373ffffffffffffffffffffffffffffffffffffffff16021790555050565b60008181548110610d0257fe5b9060005260206000209060090201600301543414610d6b576040517f08c379a0000000000000000000000000000000000000000000000000000000008152600401808060200182810382526049815260200180611c956049913960600191505060405180910390fd5b60008181548110610d7857fe5b906000526020600020906009020160000160009054906101000a900473ffffffffffffffffffffffffffffffffffffffff1673ffffffffffffffffffffffffffffffffffffffff163373ffffffffffffffffffffffffffffffffffffffff161415610e4b576040517f08c379a00000000000000000000000000000000000000000000000000000000081526004018080602001828103825260178152602001807f596f7520617265206e6f7420746865206c656e6465722100000000000000000081525060200191505060405180910390fd5b60008181548110610e5857fe5b906000526020600020906009020160010160009054906101000a900473ffffffffffffffffffffffffffffffffffffffff1673ffffffffffffffffffffffffffffffffffffffff163373ffffffffffffffffffffffffffffffffffffffff161415610f2b576040517f08c379a00000000000000000000000000000000000000000000000000000000081526004018080602001828103825260178152602001807f596f7520617265206e6f7420746865206c656e6465722100000000000000000081525060200191505060405180910390fd5b600160008281548110610f3a57fe5b90600052602060002090600902016008015414610fa2576040517f08c379a0000000000000000000000000000000000000000000000000000000008152600401808060200182810382526054815260200180611c1b6054913960600191505060405180910390fd5b60008181548110610faf57fe5b9060005260206000209060090201600501544210611035576040517f08c379a000000000000000000000000000000000000000000000000000000000815260040180806020018281038252600d8152602001807f4c6f616e2045787069726564210000000000000000000000000000000000000081525060200191505060405180910390fd5b60026000828154811061104457fe5b906000526020600020906009020160080181905550336000828154811061106757fe5b906000526020600020906009020160020160006101000a81548173ffffffffffffffffffffffffffffffffffffffff021916908373ffffffffffffffffffffffffffffffffffffffff160217905550600081815481106110c357fe5b906000526020600020906009020160060154600082815481106110e257fe5b906000526020600020906009020160040154036000828154811061110257fe5b9060005260206000209060090201600701819055506000818154811061112457fe5b906000526020600020906009020160000160009054906101000a900473ffffffffffffffffffffffffffffffffffffffff1673ffffffffffffffffffffffffffffffffffffffff166108fc349081150290604051600060405180830381858888f1935050505015801561119b573d6000803e3d6000fd5b5050565b80600115156111ad826107dd565b151514611205576040517f08c379a000000000000000000000000000000000000000000000000000000000815260040180806020018281038252602d815260200180611bee602d913960400191505060405180910390fd5b816000818154811061121357fe5b906000526020600020906009020160000160009054906101000a900473ffffffffffffffffffffffffffffffffffffffff1673ffffffffffffffffffffffffffffffffffffffff163373ffffffffffffffffffffffffffffffffffffffff16146112e5576040517f08c379a00000000000000000000000000000000000000000000000000000000081526004018080602001828103825260168152602001807f4e6565647320746f206265206120626f72726f7765720000000000000000000081525060200191505060405180910390fd5b600083815481106112f257fe5b9060005260206000209060090201600401546000848154811061131157fe5b906000526020600020906009020160030154013414611398576040517f08c379a000000000000000000000000000000000000000000000000000000000815260040180806020018281038252601f8152602001807f496e73756666696369656e742066756e6473207472616e73666572726564210081525060200191505060405180910390fd5b6002600084815481106113a757fe5b9060005260206000209060090201600801541461140f576040517f08c379a000000000000000000000000000000000000000000000000000000000815260040180806020018281038252602d815260200180611bc1602d913960400191505060405180910390fd5b60036000848154811061141e57fe5b9060005260206000209060090201600801819055506000838154811061144057fe5b906000526020600020906009020160010160009054906101000a900473ffffffffffffffffffffffffffffffffffffffff1673ffffffffffffffffffffffffffffffffffffffff166108fc6000858154811061149857fe5b906000526020600020906009020160060154600086815481106114b757fe5b906000526020600020906009020160030154019081150290604051600060405180830381858888f193505050501580156114f5573d6000803e3d6000fd5b506000838154811061150357fe5b906000526020600020906009020160020160009054906101000a900473ffffffffffffffffffffffffffffffffffffffff1673ffffffffffffffffffffffffffffffffffffffff166108fc6000858154811061155b57fe5b9060005260206000209060090201600701546000868154811061157a57fe5b906000526020600020906009020160030154019081150290604051600060405180830381858888f193505050501580156115b8573d6000803e3d6000fd5b50505050565b60008080549050905090565b80600115156115d8826107dd565b151514611630576040517f08c379a000000000000000000000000000000000000000000000000000000000815260040180806020018281038252602d815260200180611bee602d913960400191505060405180910390fd5b6000828154811061163d57fe5b906000526020600020906009020160020160009054906101000a900473ffffffffffffffffffffffffffffffffffffffff1673ffffffffffffffffffffffffffffffffffffffff163373ffffffffffffffffffffffffffffffffffffffff161461170f576040517f08c379a00000000000000000000000000000000000000000000000000000000081526004018080602001828103825260178152602001807f596f7520617265206e6f7420746865206c656e6465722100000000000000000081525060200191505060405180910390fd5b60026000838154811061171e57fe5b906000526020600020906009020160080154146117a3576040517f08c379a00000000000000000000000000000000000000000000000000000000081526004018080602001828103825260128152602001807f4c6f616e20616c7265616479207061696421000000000000000000000000000081525060200191505060405180910390fd5b600082815481106117b057fe5b9060005260206000209060090201600501544211611836576040517f08c379a000000000000000000000000000000000000000000000000000000000815260040180806020018281038252601c8152602001807f5061796261636b20706572696f64206e6f74206f76657220796574210000000081525060200191505060405180910390fd5b60046000838154811061184557fe5b9060005260206000209060090201600801819055503373ffffffffffffffffffffffffffffffffffffffff166108fc6000848154811061188157fe5b9060005260206000209060090201600301549081150290604051600060405180830381858888f193505050501580156118be573d6000803e3d6000fd5b505050565b60008311611939576040517f08c379a00000000000000000000000000000000000000000000000000000000081526004018080602001828103825260138152602001807f496e76616c6964204c6f616e20416d6f756e740000000000000000000000000081525060200191505060405180910390fd5b60006040518061012001604052803373ffffffffffffffffffffffffffffffffffffffff168152602001600073ffffffffffffffffffffffffffffffffffffffff168152602001600073ffffffffffffffffffffffffffffffffffffffff168152602001858152602001848152602001834201815260200160008152602001600081526020016000815250908060018154018082558091505060019003906000526020600020906009020160009091909190915060008201518160000160006101000a81548173ffffffffffffffffffffffffffffffffffffffff021916908373ffffffffffffffffffffffffffffffffffffffff16021790555060208201518160010160006101000a81548173ffffffffffffffffffffffffffffffffffffffff021916908373ffffffffffffffffffffffffffffffffffffffff16021790555060408201518160020160006101000a81548173ffffffffffffffffffffffffffffffffffffffff021916908373ffffffffffffffffffffffffffffffffffffffff160217905550606082015181600301556080820151816004015560a0820151816005015560c0820151816006015560e0820151816007015561010082015181600801555050505050565b604051806101200160405280600073ffffffffffffffffffffffffffffffffffffffff168152602001600073ffffffffffffffffffffffffffffffffffffffff168152602001600073ffffffffffffffffffffffffffffffffffffffff168152602001600081526020016000815260200160008152602001600081526020016000815260200160008152509056fe496e76616c69642047756172616e7465652120426f72726f7765722063616e6e6f742067756172616e7465654c6f616e207061696420616c7265616479206f72204e6f204c6f616e20686173206265656e206772616e74656456616c696420496e64657821204e6f206c6f616e2072657175657374206174207468617420706f736974696f6e5468652067756172616e7465652068617320656974686572206e6f7420796574206265656e2061636365707465642c206f722061206c6f616e2068617320616c7265616479206265656e2070726f7669646564214c6f616e2050726f76696465642e2043616e6e6f742072656a6563742067756172616e746565496e76616c69642046756e6473205472616e73666572726564212046756e6473207472616e73666665726564206973206e6f7420657175616c20746f206c6f616e20726571756573744c6f616e2068617320616e20616c72656164792061636365707465642067756172616e746565a2646970667358221220376f81d58371e085c942d87bffa61f77a1d27f61246384616977704ae2cbbe1e64736f6c63430006060033",
  "immutableReferences": {},
  "source": "pragma solidity ^0.6.6;\n\ncontract LoanSystem { \n\n    Loan[] loanRequests; \n\n    struct Loan { \n    address payable borrower; \n    address payable guarantor; \n    address payable lender; \n    uint256 loan; \n    uint256 interest;\n    uint256 paybackLength; \n    uint256 guarantorInterest; \n    uint256 lenderInterest; \n    uint256 stateOfLoan; // // 0 = has no accepted guarantee, 1 = has an accepted guarantee, 2 = has been provided a loan, 3 = has been paid back by borrower, 4 = borrower has missed the payback period\n    }\n\n    modifier validIdx(uint256 index) {\n        require(IndexInRange(index) == true, \"Valid Index! No loan request at that position\");\n        _;\n    }\n    \n    modifier isBorrower(uint256 idx) { \n        require(msg.sender == loanRequests[idx].borrower, \"Needs to be a borrower\");\n        _; \n    }\n\n    function IndexInRange(uint256 idx) public view returns(bool valid) { \n        if (idx < loanRequests.length) { return true; }\n        return false; \n    }\n\n    function getNumberOfLoanRequests() public view returns(uint256 requests) {\n        return loanRequests.length;\n    }\n\n\n    function requestLoan(uint256 loan, uint256 interest, uint256 paybackLength) public { \n        require(loan > 0, \"Invalid Loan Amount\");\n        loanRequests.push(Loan(msg.sender, address(0), address(0), loan, interest, (now + paybackLength), 0, 0, 0));\n    }\n\n    function viewLoanRequests(uint256 idx) public view returns(address borrower, address guarantor, address lender, uint256 loan , uint256 interest, uint256 paybackLength, uint256 guarantorInterest, uint256 lenderInterest, uint256 stateOfLoan) { \n        Loan memory lr = loanRequests[idx];    // this prevents stack from getting too deep\n        return(\n            lr.borrower,\n            lr.guarantor,\n            lr.lender,\n            lr.loan,\n            lr.interest,\n            lr.paybackLength,\n            lr.guarantorInterest,\n            lr.interest - lr.guarantorInterest,\n            lr.stateOfLoan);\n    }\n\n    function guaranteeLoan(uint256 idx, uint256 guaranteeInterest) validIdx(idx) public payable {\n        require(msg.value == loanRequests[idx].loan, \"Invalid Funds Transferred! Funds transffered is not equal to loan request\");\n        require(msg.sender != loanRequests[idx].borrower, \"Invalid Guarantee! Borrower cannot guarantee\");\n        require(loanRequests[idx].guarantor == address(0), \"Loan already being guaranteed!\");\n        require(guaranteeInterest < loanRequests[idx].interest, \"Guarantor Interest too high\"); \n        require(now < loanRequests[idx].paybackLength, \"Loan Expired\");\n        loanRequests[idx].guarantor = msg.sender; \n        loanRequests[idx].guarantorInterest = guaranteeInterest;\n    }\n\n    function grantLoan(uint256 idx) public payable{ \n        require(msg.value == loanRequests[idx].loan, \"Invalid Funds Transferred! Funds transffered is not equal to loan request\");\n        require(msg.sender != loanRequests[idx].borrower, \"You are not the lender!\");\n        require(msg.sender != loanRequests[idx].guarantor, \"You are not the lender!\");\n        require(loanRequests[idx].stateOfLoan == 1, \"The guarantee has either not yet been accepted, or a loan has already been provided!\");\n        require(now < loanRequests[idx].paybackLength, \"Loan Expired!\");\n        loanRequests[idx].stateOfLoan = 2; \n        loanRequests[idx].lender = msg.sender; \n        loanRequests[idx].lenderInterest = (loanRequests[idx].interest - loanRequests[idx].guarantorInterest);\n        loanRequests[idx].borrower.transfer(msg.value);\n    }\n\n    function acceptGuarantee(uint256 idx) public {\n        require(loanRequests[idx].stateOfLoan == 0, \"Loan has an already accepted guarantee\");\n        loanRequests[idx].stateOfLoan = 1;\n    }\n\n    function rejectGuarantee(uint256 idx) public { \n        require((loanRequests[idx].stateOfLoan != 2) && (loanRequests[idx].stateOfLoan != 3), \"Loan Provided. Cannot reject guarantee\");\n        require(loanRequests[idx].stateOfLoan != 0, \"No Guarantee present\");\n        loanRequests[idx].stateOfLoan = 0; \n        loanRequests[idx].guarantorInterest = 0; \n        loanRequests[idx].guarantor.transfer(loanRequests[idx].loan);\n        loanRequests[idx].guarantor = address(0);\n    }\n\n    function payLoan(uint256 idx) public validIdx(idx) isBorrower(idx) payable { \n        require(msg.value == (loanRequests[idx].loan + loanRequests[idx].interest), \"Insufficient funds transferred!\");\n        require(loanRequests[idx].stateOfLoan == 2, \"Loan paid already or No Loan has been granted\");\n        loanRequests[idx].stateOfLoan = 3; \n        loanRequests[idx].guarantor.transfer(loanRequests[idx].loan + loanRequests[idx].guarantorInterest);\n        loanRequests[idx].lender.transfer(loanRequests[idx].loan + loanRequests[idx].lenderInterest);\n    }\n\n    function missedPaybackDate(uint256 idx) public validIdx(idx) { \n        require(msg.sender == loanRequests[idx].lender, \"You are not the lender!\");\n        require(loanRequests[idx].stateOfLoan == 2, \"Loan already paid!\");\n        require(now > loanRequests[idx].paybackLength, \"Payback period not over yet!\");\n        loanRequests[idx].stateOfLoan = 4; \n        msg.sender.transfer(loanRequests[idx].loan);\n    } \n}",
  "sourcePath": "/home/malik_cyrus/ict3009_assignment/contracts/LoanSystem.sol",
  "compiler": {
    "name": "solc",
    "version": "0.6.6+commit.6c089d02.Emscripten.clang"
  },
  "schemaVersion": "3.4.10",
  "updatedAt": "2023-02-16T20:14:10.304Z",
  "networkType": "ethereum",
  "devdoc": {
    "methods": {}
  },
  "userdoc": {
    "methods": {}
  }
}